:020000040000FA
:040000001DEF1BF0E5
:10060000003F065B4F666D7D077F6F777C395E79B3
:100610007143616C63756C616E646F20494D432E4C
:100620002E2E004D6564696E646F20616C74757266
:10063000612E2E0042616C616E6361202044696707
:100640006974616C004D742061626169786F446FF8
:100650005065736F0041626169786F20646F20702C
:1006600065736F004F626573696461646520494911
:1006700049004163696D6120646F207065736F008C
:100680004F6265736964616465204949004F626522
:100690007369646164652049005065736F206E6FF3
:1006A000726D616C00506573616E646F2E2E2E004A
:1006B0004170657274652052423100706172612030
:1006C0006C6967617200416C747572613A005065C3
:0F06D000736F3A00494D433A006B67006D0000AD
:1006E000000E956E000E836E000E116E000E126EDF
:1006F000000E136E000E146E11C001F012C002F055
:1007000013C003F014C004F0000E056E000E066E58
:100710007A0E076E440E086EBCEC16F0D8A093EF6C
:1007200003F095EF03F097EF03F0CAEF03F011C069
:1007300001F012C002F013C003F014C004F0000E68
:10074000056E000E066E800E076E3F0E086E8BEC77
:1007500006F001C011F002C012F003C013F004C093
:1007600014F011C001F012C002F013C003F014C065
:1007700004F0000E056E000E066E7A0E076E440E33
:10078000086EBCEC16F0D8A0C8EF03F0CAEF03F077
:1007900097EF03F0010E836E000E116E000E126EC5
:1007A000000E136E000E146E11C001F012C002F0A4
:1007B00013C003F014C004F0000E056E000E066EA8
:1007C0007A0E076E440E086EBCEC16F0D8A0EBEF64
:1007D00003F0EDEF03F0EFEF03F022EF04F011C0B0
:1007E00001F012C002F013C003F014C004F0000EB8
:1007F000056E000E066E800E076E3F0E086E8BECC7
:1008000006F001C011F002C012F003C013F004C0E2
:1008100014F011C001F012C002F013C003F014C0B4
:1008200004F0000E056E000E066E7A0E076E440E82
:10083000086EBCEC16F0D8A020EF04F022EF04F014
:10084000EFEF03F0020E836E000E116E000E126EBB
:10085000000E136E000E146E11C001F012C002F0F3
:1008600013C003F014C004F0000E056E000E066EF7
:100870007A0E076E440E086EBCEC16F0D8A043EF5B
:1008800004F045EF04F047EF04F07AEF04F011C0F4
:1008900001F012C002F013C003F014C004F0000E07
:1008A000056E000E066E800E076E3F0E086E8BEC16
:1008B00006F001C011F002C012F003C013F004C032
:1008C00014F011C001F012C002F013C003F014C004
:1008D00004F0000E056E000E066E7A0E076E440ED2
:1008E000086EBCEC16F0D8A078EF04F07AEF04F0B4
:1008F00047EF04F0040E836E000E116E000E126EB0
:10090000000E136E000E146E11C001F012C002F042
:1009100013C003F014C004F0000E056E000E066E46
:100920007A0E076E440E086EBCEC16F0D8A09BEF52
:1009300004F09DEF04F09FEF04F0D2EF04F011C03B
:1009400001F012C002F013C003F014C004F0000E56
:10095000056E000E066E800E076E3F0E086E8BEC65
:1009600006F001C011F002C012F003C013F004C081
:1009700014F011C001F012C002F013C003F014C053
:1009800004F0000E056E000E066E7A0E076E440E21
:10099000086EBCEC16F0D8A0D0EF04F0D2EF04F053
:1009A0009FEF04F0080E836E000E116E000E126EA3
:1009B000000E136E000E146E11C001F012C002F092
:1009C00013C003F014C004F0000E056E000E066E96
:1009D0007A0E076E440E086EBCEC16F0D8A0F3EF4A
:1009E00004F0F5EF04F0F7EF04F02AEF05F011C082
:1009F00001F012C002F013C003F014C004F0000EA6
:100A0000056E000E066E800E076E3F0E086E8BECB4
:100A100006F001C011F002C012F003C013F004C0D0
:100A200014F011C001F012C002F013C003F014C0A2
:100A300004F0000E056E000E066E7A0E076E440E70
:100A4000086EBCEC16F0D8A028EF05F02AEF05F0F0
:100A5000F7EF04F0100E836E000E116E000E126E92
:100A6000000E136E000E146E11C001F012C002F0E1
:100A700013C003F014C004F0000E056E000E066EE5
:100A80007A0E076E440E086EBCEC16F0D8A04BEF41
:100A900005F04DEF05F04FEF05F082EF05F011C0C6
:100AA00001F012C002F013C003F014C004F0000EF5
:100AB000056E000E066E800E076E3F0E086E8BEC04
:100AC00006F001C011F002C012F003C013F004C020
:100AD00014F011C001F012C002F013C003F014C0F2
:100AE00004F0000E056E000E066E7A0E076E440EC0
:100AF000086EBCEC16F0D8A080EF05F082EF05F090
:100B00004FEF05F0200E836E000E116E000E126E78
:100B1000000E136E000E146E11C001F012C002F030
:100B200013C003F014C004F0000E056E000E066E34
:100B30007A0E076E440E086EBCEC16F0D8A0A3EF38
:100B400005F0A5EF05F0A7EF05F0DAEF05F011C00D
:100B500001F012C002F013C003F014C004F0000E44
:100B6000056E000E066E800E076E3F0E086E8BEC53
:100B700006F001C011F002C012F003C013F004C06F
:100B800014F011C001F012C002F013C003F014C041
:100B900004F0000E056E000E066E7A0E076E440E0F
:100BA000086EBCEC16F0D8A0D8EF05F0DAEF05F02F
:100BB000A7EF05F0400E836E000E116E000E126E50
:100BC000000E136E000E146E11C001F012C002F080
:100BD00013C003F014C004F0000E056E000E066E84
:100BE0007A0E076E440E086EBCEC16F0D8A0FBEF30
:100BF00005F0FDEF05F0FFEF05F032EF06F011C054
:100C000001F012C002F013C003F014C004F0000E93
:100C1000056E000E066E800E076E3F0E086E8BECA2
:100C200006F001C011F002C012F003C013F004C0BE
:100C300014F011C001F012C002F013C003F014C090
:100C400004F0000E056E000E066E7A0E076E440E5E
:100C5000086EBCEC16F0D8A030EF06F032EF06F0CC
:100C6000FFEF05F0800E836E000E116E000E126E07
:100C7000000E136E000E146E11C001F012C002F0CF
:100C800013C003F014C004F0000E056E000E066ED3
:100C90007A0E076E440E086EBCEC16F0D8A053EF27
:100CA00006F055EF06F057EF06F08AEF06F011C098
:100CB00001F012C002F013C003F014C004F0000EE3
:100CC000056E000E066E800E076E3F0E086E8BECF2
:100CD00006F001C011F002C012F003C013F004C00E
:100CE00014F011C001F012C002F013C003F014C0E0
:100CF00004F0000E056E000E066E7A0E076E440EAE
:100D0000086EBCEC16F0D8A088EF06F08AEF06F06B
:100D100057EF06F012000450800B0D6E04500424AF
:100D20000F6E03AE96EF06F098EF06F099EF06F01F
:100D30000F800F50D8B49FEF06F0A1EF06F0B6EF8A
:100D400006F00F28D8A4A7EF06F0A9EF06F0B1EF40
:100D500006F0000E016E000E026E000E036E000E15
:100D6000046E038E000E046EBEEF06F0000E016EE0
:100D7000000E026E000E036E000E046E0850800B13
:100D80000E6E0D500E18D8B4C8EF06F0CAEF06F07C
:100D9000CBEF06F00D8C085008240E6E07AED3EF93
:100DA00006F0D5EF06F0D6EF06F00E800E50D8B460
:100DB000DCEF06F0DEEF06F0F3EF06F00E28D8A425
:100DC000E4EF06F0E6EF06F0EEEF06F0000E056E3B
:100DD000000E066E000E076E000E086E078E000EE7
:100DE000086EFBEF06F0000E056E000E066E000E9C
:100DF000076E000E086E0F500E5CD8B002EF07F0C1
:100E000004EF07F02BEF07F00DAC09EF07F00BEF45
:100E100007F00DEF07F0800E0D1A0FC010F00EC096
:100E20000FF010C00EF001C010F005C001F010C0AE
:100E300005F002C010F006C002F010C006F003C0BA
:100E400010F007C003F010C007F004C010F008C095
:100E500004F010C008F0000E106E0F500EC009F024
:100E60000A6A095E000E0A5A0ABE40EF07F00A50ED
:100E700009E11A0E095CD8A040EF07F042EF07F035
:100E800079EF07F00150021003100410D8A44BEFC3
:100E900007F04EEF07F0010E4FEF07F0000E106E57
:100EA000000E016E000E026E000E036E000E046E48
:100EB0000EC00FF082EF07F010A061EF07F063EFB4
:100EC00007F069EF07F0D89010300109106E6BEF52
:100ED00007F0D890103201A070EF07F072EF07F022
:100EE00073EF07F0108E0434043203320232013201
:100EF0000F2A0E500F5CD8A080EF07F082EF07F0AA
:100F00005CEF07F00DBC87EF07F089EF07F0C9EF42
:100F100007F00F50D8A48FEF07F091EF07F09BEF89
:100F200007F0000E016E000E026E000E036E000E42
:100F3000046EEAEF08F00550012606500222075021
:100F400003220850042204A0A8EF07F0AAEF07F03C
:100F500056EF08F010A0AFEF07F0B1EF07F0B7EFD2
:100F600007F0D89010300109106EB9EF07F0D89053
:100F7000103201A0BEEF07F0C0EF07F0C1EF07F09D
:100F8000108E043404320332023201320F2A56EF3B
:100F900008F00550015C06500258075003580450F1
:100FA000800A096E0850800A0958D8B0DAEF07F0B5
:100FB000DCEF07F007EF08F00150055C096E025006
:100FC00006580A6E035007580B6E045008580C6EF2
:100FD000FF0E0924016EFF0E0A20026EFF0E0B2089
:100FE000036EFF0E0C20046E800E0D1A106C105054
:100FF000D8A4FDEF07F0FFEF07F00FEF08F0010EA8
:101000000126000E0222032204220FEF08F00550F1
:10101000015E0650025A0750035A0850045A015004
:10102000021003100410D8A418EF08F01AEF08F00B
:101030004FEF08F01050D8A420EF08F022EF08F08E
:101040004FEF08F0000E016E000E026E000E036EF0
:10105000000E046EEAEF08F0D8900136023603362F
:10106000043610AE36EF08F038EF08F039EF08F02C
:10107000018010A03EEF08F040EF08F044EF08F0C8
:10108000D880103646EF08F0D89010360F50D8B4FC
:101090004CEF08F04EEF08F04FEF08F00F0603AEEC
:1010A00054EF08F056EF08F02CEF08F0000E0E6E2B
:1010B00010AE5DEF08F05FEF08F077EF08F010C0BA
:1010C00009F07F0E0916D8B468EF08F06AEF08F04F
:1010D0006EEF08F0010E0E6E77EF08F001A073EFCF
:1010E00008F075EF08F077EF08F06AEF08F00E509F
:1010F000D8B47DEF08F07FEF08F0AAEF08F0010EFA
:101100000126000E02220322042204A08AEF08F026
:101110008CEF08F0AAEF08F001C009F002C00AF055
:1011200003C00BF004C00CF00C340C320B320A324A
:10113000093209C001F00AC002F00BC003F00CC074
:1011400004F00F28D8B4A7EF08F0A9EF08F0AAEF31
:1011500008F00F2A0F28D8B4B0EF08F0B2EF08F06B
:10116000BAEF08F00F50D8A4B8EF08F0BAEF08F0C3
:10117000CCEF08F0000E016E000E026E000E036E42
:10118000000E046E0F50D8A4C8EF08F0CAEF08F0A4
:10119000CCEF08F0000E0D6E0FA0D1EF08F0D3EFEA
:1011A00008F0D6EF08F0038ED7EF08F0039ED89032
:1011B0000F30046E0DAEDFEF08F0E1EF08F0E2EF64
:1011C00008F0048E01C001F002C002F003C003F079
:1011D00004C004F01200010EB5EC18F0000E096E08
:1011E000010EA0EC19F0CE0E046E060E056EBBECDF
:1011F0001AF063C001F064C002F0000E046E0A0E23
:10120000036EE3EC1AF001C00DF002C00EF0170EF1
:101210000F6E000E106EB5EC15F0185091EC1AF030
:10122000195091EC1AF02C0E91EC1AF01A5091EC26
:101230001AF0D90E046E060E056EBBEC1AF0000E05
:10124000096E020EA0EC19F0C60E046E060E056EB5
:10125000BBEC1AF061C001F062C002F0000E046E37
:101260000A0E036EE3EC1AF001C00DF002C00EF09E
:10127000170E0F6E000E106EB5EC15F0185091ECB5
:101280001AF02C0E91EC1AF0195091EC1AF01A5039
:1012900091EC1AF0DC0E046E060E056EBBEC1AF033
:1012A000000E096E030EA0EC19F0D40E046E060EAB
:1012B000056EBBEC1AF053C00DF054C00EF0170EC3
:1012C0000F6E000E106EB5EC15F0185091EC1AF080
:1012D000195091EC1AF02C0E91EC1AF01A5091EC76
:1012E0001AF01B5091EC1AF01C5091EC1AF053506C
:1012F0005410D8B47EEF09F080EF09F02CEF0BF01A
:10130000000E046E640E036E53C001F054C002F070
:10131000AFEC17F001C009F002C00AF0000E0ABEDF
:10132000FF0E0B6E0C6E010E89EC13F009C01DF060
:101330000AC01EF00BC01FF00CC020F01DC001F051
:101340001EC002F01FC003F020C004F0000E056EA6
:10135000000E066E880E076E410E086EBCEC16F08D
:10136000D8B0B5EF09F0B7EF09F0C5EF09F0000EFE
:10137000096E040EA0EC19F0280E6AEC19F0450E67
:10138000046E060E056EBBEC1AF01DC001F01EC007
:1013900002F01FC003F020C004F0000E056E000E26
:1013A000066E880E076E410E086EBCEC16F0D8A0D3
:1013B000DCEF09F0DEEF09F005EF0AF01DC001F0E7
:1013C0001EC002F01FC003F020C004F0000E056E26
:1013D000000E066E940E076E410E086EBCEC16F001
:1013E000D8B0F5EF09F0F7EF09F005EF0AF0000EBD
:1013F000096E040EA0EC19F0410E6AEC19F0550EBE
:10140000046E060E056EBBEC1AF01DC001F01EC086
:1014100002F01FC003F020C004F0000E056E000EA5
:10142000066E940E076E410E086EBCEC16F0D8A046
:101430001CEF0AF01EEF0AF045EF0AF01DC001F0A4
:101440001EC002F01FC003F020C004F0000E056EA5
:10145000000E066EC80E076E410E086EBCEC16F04C
:10146000D8B035EF0AF037EF0AF045EF0AF0000E7A
:10147000096E040EA0EC19F0630E6AEC19F0990ED7
:10148000046E060E056EBBEC1AF01DC001F01EC006
:1014900002F01FC003F020C004F0000E056E000E25
:1014A000066EC80E076E410E086EBCEC16F0D8A092
:1014B0005CEF0AF05EEF0AF085EF0AF01DC001F064
:1014C0001EC002F01FC003F020C004F0000E056E25
:1014D000000E066EF00E076E410E086EBCEC16F0A4
:1014E000D8B075EF0AF077EF0AF085EF0AF0000E3A
:1014F000096E040EA0EC19F0410E6AEC19F0720EA0
:10150000046E060E056EBBEC1AF01DC001F01EC085
:1015100002F01FC003F020C004F0000E056E000EA4
:10152000066EF00E076E410E086EBCEC16F0D8A0E9
:101530009CEF0AF09EEF0AF0C5EF0AF01DC001F023
:101540001EC002F01FC003F020C004F0000E056EA4
:10155000000E066E0C0E076E420E086EBCEC16F006
:10156000D8B0B5EF0AF0B7EF0AF0C5EF0AF0000EF9
:10157000096E040EA0EC19F0280E6AEC19F08D0E1D
:10158000046E060E056EBBEC1AF01DC001F01EC005
:1015900002F01FC003F020C004F0000E056E000E24
:1015A000066E0C0E076E420E086EBCEC16F0D8A04C
:1015B000DCEF0AF0DEEF0AF005EF0BF01DC001F0E2
:1015C0001EC002F01FC003F020C004F0000E056E24
:1015D000000E066E200E076E420E086EBCEC16F072
:1015E000D8B0F5EF0AF0F7EF0AF005EF0BF0000EB8
:1015F000096E040EA0EC19F0190E6AEC19F0800EB9
:10160000046E060E056EBBEC1AF0000E016E000EA5
:10161000026E200E036E420E046E1DC005F01EC049
:1016200006F01FC007F020C008F0BCEC16F0D8B0E0
:101630001CEF0BF01EEF0BF02CEF0BF0000E096E01
:10164000040EA0EC19F00A0E6AEC19F0640E046E98
:10165000060E056EBBEC1AF012001A50800B236EBA
:101660001A501A24296E19AE38EF0BF03AEF0BF02E
:101670003BEF0BF029802950D8B441EF0BF043EF3A
:101680000BF056EF0BF02928D8A449EF0BF04BEFE5
:101690000BF053EF0BF0000E176E000E186E000EDD
:1016A000196E000E1A6E198E5EEF0BF0000E176E9B
:1016B000000E186E000E196E000E1A6E1E50800B72
:1016C000231A1E501E24286E1DAE69EF0BF06BEF1F
:1016D0000BF06CEF0BF028802850D8B472EF0BF0B1
:1016E00074EF0BF087EF0BF02828D8A47AEF0BF0FB
:1016F0007CEF0BF084EF0BF0000E1B6E000E1C6EE7
:10170000000E1D6E000E1E6E1D8E8FEF0BF0000E74
:101710001B6E000E1C6E000E1D6E000E1E6E2850FD
:10172000D8B495EF0BF097EF0BF09FEF0BF029502B
:10173000D8A49DEF0BF09FEF0BF0A9EF0BF0000E7C
:10174000176E000E186E000E196E000E1A6E41EF25
:101750000DF01D501702F3CF2EF0F4CF2FF02E50C6
:10176000246E256A266A276A2F502A6E2B6A2C6AF5
:101770002D6A1C501802F3CF2EF0F4CF2FF02E500C
:101780002426000E2522262227222F502A26000E4C
:101790002B222C222D221B501902F3CF2EF0F4CF36
:1017A0002FF02E502426000E2522262227222F50ED
:1017B0002A26000E2B222C222D2226C027F025C0FF
:1017C00026F024C025F0246A1B501802F3CF2EF017
:1017D000F4CF2FF02E5024262F502522000E262243
:1017E000000E27221C501702F3CF2EF0F4CF2FF05B
:1017F0002E5024262F502522000E2622000E2722AE
:1018000026C027F025C026F024C025F0246A1B50EE
:101810001702F3CF2EF0F4CF2FF02E5024262F50A6
:101820002522000E2622000E27221D501802F3CF7B
:101830002EF0F4CF2FF02E502A262F502B22000E00
:101840002C22000E2D221C501902F3CF2EF0F4CFC3
:101850002FF02E502A262F502B22000E2C22000E65
:101860002D221D501902F3CF2EF0F4CF2FF02E5061
:101870001F6E2F50206E216A226A21C022F020C0E4
:1018800021F01FC020F01F6A1F502A2620502B2253
:1018900021502C2222502D2224C01FF025C020F0E0
:1018A00026C021F027C022F0190E5CEF0CF0D89072
:1018B0002232213220321F32E82E57EF0CF01F5017
:1018C0002A2620502B2221502C2222502D2226C0A5
:1018D00027F025C026F024C025F0246A285029C00E
:1018E0001FF0206A1F26000E2022820E1F242E6E5B
:1018F000FF0E20202F6E92EF0CF0D8902A362B3658
:101900002C362D3627AE87EF0CF089EF0CF08AEFDE
:101910000CF02A80D89024362536263627362E0617
:10192000D8A02F062CAE97EF0CF099EF0CF07DEFBE
:101930000CF0000E286E27AEA0EF0CF0A2EF0CF01A
:10194000C6EF0CF0FF0E24141F6EFF0E2514206E40
:10195000FF0E2614216E7F0E2714226E1F502010BA
:1019600021102210D8B4B7EF0CF0B9EF0CF0BDEF96
:101970000CF0010E286EC6EF0CF02AA0C2EF0CF09E
:10198000C4EF0CF0C6EF0CF0B9EF0CF02850D8B44F
:10199000CCEF0CF0CEEF0CF0F2EF0CF0010E2A269B
:1019A000000E2B222C222D222DA0D9EF0CF0DBEFE4
:1019B0000CF0F2EF0CF02AC01FF02BC020F02CC06E
:1019C00021F02DC022F022342232213220321F3267
:1019D0001FC02AF020C02BF021C02CF022C02DF017
:1019E0002E4A2F2A2FBEFDEF0CF02F5008E12E2893
:1019F000D8A0FDEF0CF0FFEF0CF009EF0DF0000E9A
:101A00002A6E000E2B6E800E2C6E7F0E2D6E37EF21
:101A10000DF02FBE16EF0DF02F5006E12E04D8B0BA
:101A200014EF0DF016EF0DF022EF0DF0000E2A6E00
:101A3000000E2B6E000E2C6E000E2D6E000E236E0F
:101A400037EF0DF02EC029F0FF0E2A16FF0E2B16D1
:101A50007F0E2C16000E2D1629A031EF0DF033EF5E
:101A60000DF034EF0DF02C8ED89029302D6E2350D0
:101A70002D122AC017F02BC018F02CC019F02DC061
:101A80001AF012003350800B406E33503324476EEF
:101A900032AE4DEF0DF04FEF0DF050EF0DF04780EF
:101AA0004750D8B456EF0DF058EF0DF06DEF0DF034
:101AB0004728D8A45EEF0DF060EF0DF068EF0DF051
:101AC000000E306E000E316E000E326E000E336E60
:101AD000328E000E336E75EF0DF0000E306E000E7C
:101AE000316E000E326E000E336E3750800B401A8E
:101AF00037503724486E36AE80EF0DF082EF0DF090
:101B000083EF0DF048804850D8B489EF0DF08BEF8B
:101B10000DF0A0EF0DF04828D8A491EF0DF093EF51
:101B20000DF09BEF0DF0000E346E000E356E000EC2
:101B3000366E000E376E368E000E376EA8EF0DF043
:101B4000000E346E000E356E000E366E000E376ECF
:101B50003450351036103710D8A4B1EF0DF0B3EF74
:101B60000DF0CBEF0DF0000E306E000E316E000E5A
:101B7000326E000E336E800E32127F0E33124050E2
:101B8000331230C030F031C031F032C032F033C0E7
:101B900033F00EEF0FF04750D8A4D1EF0DF0D3EF94
:101BA0000DF0DDEF0DF0000E306E000E316E000E08
:101BB000326E000E336E0EEF0FF0485047C038F013
:101BC000396A385E000E395A7F0E3824416E000E95
:101BD0003920426E30C03CF031C03DF032C03EF0A2
:101BE00033C03FF0000E306E000E316E000E326ECC
:101BF000000E336E000E436E000E446E000E456EF6
:101C0000000E466E000E486E3EEF0EF04850D8B4FF
:101C10000CEF0EF00EEF0EF025EF0EF0D8903C36E4
:101C20003D363E363F36D890303631363236333652
:101C300046AE1DEF0EF01FEF0EF020EF0EF03080DD
:101C4000D890433644364536463634503C5C3550A1
:101C50003D5836503E5837503F58D8A032EF0EF01E
:101C600034EF0EF03DEF0EF0468C34503C5E3550B4
:101C70003D5A36503E5A37503F5A482A190E48644A
:101C800044EF0EF046EF0EF006EF0EF03C503D1024
:101C90003E103F10D8B44FEF0EF051EF0EF069EF49
:101CA0000EF0438069EF0EF0D89030363136323680
:101CB000333646AE5EEF0EF060EF0EF061EF0EF0E1
:101CC0003080D89043364436453646364106D8A053
:101CD000420632AE6EEF0EF070EF0EF054EF0EF0E3
:101CE000000E486E46AE77EF0EF079EF0EF09DEFE6
:101CF0000EF0FF0E4314386EFF0E4414396EFF0EC3
:101D000045143A6E7F0E46143B6E385039103A1027
:101D10003B10D8B48EEF0EF090EF0EF094EF0EF073
:101D2000010E486E9DEF0EF030A099EF0EF09BEF84
:101D30000EF09DEF0EF090EF0EF04850D8B4A3EFE8
:101D40000EF0A5EF0EF0C9EF0EF0010E3026000EDA
:101D500031223222332233A0B0EF0EF0B2EF0EF078
:101D6000C9EF0EF030C038F031C039F032C03AF06F
:101D700033C03BF03B343B323A323932383238C030
:101D800030F039C031F03AC032F03BC033F0414A54
:101D9000422A42BED4EF0EF0425008E14128D8A0BA
:101DA000D4EF0EF0D6EF0EF0E1EF0EF0000E426E23
:101DB0004168000E306E000E316E000E326E000E65
:101DC000336E42BEEEEF0EF0425006E14104D8B051
:101DD000ECEF0EF0EEEF0EF0FCEF0EF0000E426EA8
:101DE000000E416E000E306E000E316E000E326E2F
:101DF000000E336E000E406E41C047F047A003EF67
:101E00000FF005EF0FF008EF0FF0328E09EF0FF033
:101E1000329ED8904730336EBFEF0DF0120002BEF5
:101E20001DEF0FF0025007E1080E015CD8B01BEF68
:101E30000FF01DEF0FF047EF0FF003500410D8B470
:101E400024EF0FF026EF0FF036EF0FF001C005F092
:101E5000010E066E052A2FEF0FF0D8900636052EDC
:101E60002DEF0FF00650921235EF10F001C005F083
:101E7000010E066E052A3FEF0FF0D8900636052EAC
:101E80003DEF0FF00650FF0A921635EF10F002BE3C
:101E900055EF0FF0025007E1100E015CD8B053EF80
:101EA0000FF055EF0FF083EF0FF003500410D8B48C
:101EB0005CEF0FF05EEF0FF070EF0FF001C005F078
:101EC000F80E0526010E066E052A69EF0FF0D89070
:101ED0000636052E67EF0FF00650931235EF10F01F
:101EE00001C005F0F80E0526010E066E052A7BEFEF
:101EF0000FF0D8900636052E79EF0FF00650FF0A46
:101F0000931635EF10F002BE91EF0FF0025007E18B
:101F1000180E015CD8B08FEF0FF091EF0FF0BFEF0C
:101F20000FF003500410D8B498EF0FF09AEF0FF0B1
:101F3000ACEF0FF001C005F0F00E0526010E066EA5
:101F4000052AA5EF0FF0D8900636052EA3EF0FF067
:101F50000650941235EF10F001C005F0F00E052682
:101F6000010E066E052AB7EF0FF0D8900636052E43
:101F7000B5EF0FF00650FF0A941635EF10F002BED1
:101F8000CDEF0FF0025007E1200E015CD8B0CBEF8F
:101F90000FF0CDEF0FF0FBEF0FF003500410D8B4AB
:101FA000D4EF0FF0D6EF0FF0E8EF0FF001C005F01F
:101FB000E80E0526010E066E052AE1EF0FF0D89017
:101FC0000636052EDFEF0FF00650951235EF10F0B4
:101FD00001C005F0E80E0526010E066E052AF3EF96
:101FE0000FF0D8900636052EF1EF0FF00650FF0ADD
:101FF000951635EF10F002BE09EF10F0025007E120
:10200000280E015CD8B007EF10F009EF10F035EFA3
:1020100010F003500410D8B410EF10F012EF10F0CD
:1020200024EF10F001C005F0E00E0526010E066E4B
:10203000052A1DEF10F0D8900636052E1BEF10F084
:102040000650961235EF10F001C005F0E00E05269F
:10205000010E066E052A2FEF10F0D8900636052ED9
:102060002DEF10F00650FF0A9616120002BE44EF44
:1020700010F0025007E1080E015CD8B042EF10F0FA
:1020800044EF10F06EEF10F003500410D8B44BEF93
:1020900010F04DEF10F05DEF10F001C005F0010EF3
:1020A000066E052A56EF10F0D8900636052E54EF2E
:1020B00010F0065080125CEF11F001C005F0010E27
:1020C000066E052A66EF10F0D8900636052E64EFEE
:1020D00010F00650FF0A80165CEF11F002BE7CEF94
:1020E00010F0025007E1100E015CD8B07AEF10F04A
:1020F0007CEF10F0AAEF10F0F80E0126FF0E02227E
:1021000003500410D8B487EF10F089EF10F099EF66
:1021100010F001C005F0010E066E052A92EF10F0D6
:10212000D8900636052E90EF10F0065081125CEF25
:1021300011F001C005F0010E066E052AA2EF10F0A5
:10214000D8900636052EA0EF10F00650FF0A811633
:102150005CEF11F002BEB8EF10F0025007E1180E6C
:10216000015CD8B0B6EF10F0B8EF10F0E6EF10F069
:10217000F00E0126FF0E022203500410D8B4C3EF64
:1021800010F0C5EF10F0D5EF10F001C005F0010E12
:10219000066E052ACEEF10F0D8900636052ECCEF4D
:1021A00010F0065082125CEF11F001C005F0010E34
:1021B000066E052ADEEF10F0D8900636052EDCEF0D
:1021C00010F00650FF0A82165CEF11F002BEF4EF29
:1021D00010F0025007E1200E015CD8B0F2EF10F0D1
:1021E000F4EF10F022EF11F0E80E0126FF0E0222AC
:1021F00003500410D8B4FFEF10F001EF11F011EF0D
:1022000011F001C005F0010E066E052A0AEF11F06B
:10221000D8900636052E08EF11F0065083125CEFB9
:1022200011F001C005F0010E066E052A1AEF11F03B
:10223000D8900636052E18EF11F00650FF0A8316C7
:102240005CEF11F002BE30EF11F0025007E1280EF2
:10225000015CD8B02EEF11F030EF11F05CEF11F00F
:10226000E00E0126FF0E022203500410D8B43BEF0B
:1022700011F03DEF11F04DEF11F001C005F0010E2E
:10228000066E052A46EF11F0D8900636052E44EF6B
:1022900011F0065084125CEF11F001C005F0010E40
:1022A000066E052A56EF11F0D8900636052E54EF2B
:1022B00011F00650FF0A8416120015C063F016C014
:1022C00064F070EC03F066EC1AF01A4A1B2A000E58
:1022D0000F6E000E046E640E036E1AC001F01BC078
:1022E00002F0AFEC17F001C009F002C00AF0000ED6
:1022F0000C6E0A0E0B6E11EC18F009503AEC1AF045
:10230000010E0F6E000E046E5A0E036E1AC001F01D
:102310001BC002F0AFEC17F001C009F002C00AF0D8
:10232000000E0C6E0A0E0B6E11EC18F009503AEC10
:102330001AF0020E0F6E000E046E320E036E1AC0FB
:1023400001F01BC002F0AFEC17F001C009F002C0B1
:102350000AF0000E0C6E0A0E0B6E11EC18F009500C
:102360003AEC1AF0030E0F6E000E046E190E036E97
:102370001AC001F01BC002F0AFEC17F001C009F069
:1023800002C00AF0000E0C6E0A0E0B6E11EC18F073
:1023900009503AEC1AF00DEC15F0000E1D6E000E0F
:1023A0001C6EE80E1C5C030E1D58D8A0DAEF11F06D
:1023B000DCEF11F0DEEF11F0E2EF11F01C4A1D2A04
:1023C000D1EF11F015501A5C1B50800A176E165091
:1023D000800A1758D8A0EFEF11F0F1EF11F065EF78
:1023E00011F0000E196E000E186E000E0F6E000E2A
:1023F000046E640E036E15C001F016C002F0AFEC5F
:1024000017F001C009F002C00AF0000E0C6E0A0EAF
:102410000B6E11EC18F009503AEC1AF0010E0F6E29
:10242000000E046E0A0E036E15C001F016C002F015
:10243000AFEC17F001C009F002C00AF0000E0C6EFC
:102440000A0E0B6E11EC18F009503AEC1AF0020E5D
:102450000F6E15C009F016C00AF0000E0C6E0A0EC1
:102460000B6E11EC18F009503AEC1AF0030E0F6ED7
:1024700015C009F016C00AF0000E0C6E0A0E0B6EA5
:1024800011EC18F009503AEC1AF00DEC15F0000EB2
:102490001D6E000E1C6EE80E1C5C030E1D58D8A0AD
:1024A00054EF12F056EF12F058EF12F05CEF12F00A
:1024B0001C4A1D2A4BEF12F0184A192A19BE6AEF5E
:1024C00012F0EE0E185C020E1958D8A06AEF12F046
:1024D0006CEF12F0F5EF11F070EC03F08094809641
:1024E0008098809A120015C061F016C062F070ECFE
:1024F00003F066EC1AF01A4A1B2A000E0F6E000E4B
:10250000046E640E036E1AC001F01BC002F0AFEC43
:1025100017F001C009F002C00AF0000E0C6E0A0E9E
:102520000B6E11EC18F009503AEC1AF0010E0F6E18
:10253000000E046E500E036E1AC001F01BC002F0B4
:10254000AFEC17F001C009F002C00AF0000E0C6EEB
:102550000A0E0B6E11EC18F009503AEC1AF0020E4C
:102560000F6E000E046E320E036E1AC001F01BC017
:1025700002F0AFEC17F001C009F002C00AF0000E43
:102580000C6E0A0E0B6E11EC18F009503AEC1AF0B2
:10259000030E0F6E000E046E190E036E1AC001F0CA
:1025A0001BC002F0AFEC17F001C009F002C00AF046
:1025B000000E0C6E0A0E0B6E11EC18F009503AEC7E
:1025C0001AF00DEC15F0000E1D6E000E1C6EE80EDC
:1025D0001C5C030E1D58D8A0F0EF12F0F2EF12F0C1
:1025E000F4EF12F0F8EF12F01C4A1D2AE7EF12F098
:1025F00015501A5C1B50800A176E1650800A175827
:10260000D8A005EF13F007EF13F07BEF12F0000EE8
:10261000196E000E186E000E0F6E000E046E640E22
:10262000036E15C001F016C002F0AFEC17F001C048
:1026300009F002C00AF0000E0C6E0A0E0B6E11ECCF
:1026400018F009503AEC1AF0010E0F6E000E046EED
:102650000A0E036E15C001F016C002F0AFEC17F0C1
:1026600001C009F002C00AF0000E0C6E0A0E0B6EDB
:1026700011EC18F009503AEC1AF0020E0F6E15C06A
:1026800009F016C00AF0000E0C6E0A0E0B6E11EC6B
:1026900018F009503AEC1AF0030E0F6E15C009F04D
:1026A00016C00AF0000E0C6E0A0E0B6E11EC18F03C
:1026B00009503AEC1AF00DEC15F0000E1D6E000EEC
:1026C0001C6EE80E1C5C030E1D58D8A06AEF13F0B8
:1026D0006CEF13F06EEF13F072EF13F01C4A1D2A2B
:1026E00061EF13F0184A192A19BE80EF13F0EE0EAD
:1026F000185C020E1958D8A080EF13F082EF13F087
:102700000BEF13F070EC03F0809480968098809A21
:102710001200116E1150D8B490EF13F092EF13F035
:10272000B4EF13F00CBE99EF13F097EF13F0B4EF82
:1027300013F009C00DF00AC00EF00BC00FF00CC072
:1027400010F00D1E0E1E0F1E101E0D2A000E0E2262
:102750000F2210220DC013F00EC014F00FC015F0A0
:1027600010C016F0BCEF13F009C013F00AC014F04B
:102770000BC015F00CC016F009500A100B100C100D
:10278000D8A4C5EF13F0C7EF13F0D1EF13F0000E8C
:10279000096E000E0A6E000E0B6E000E0C6E62EFDC
:1027A00014F0960E126EDBEF13F0122AD890163248
:1027B000153214321332000E13140D6E000E141461
:1027C0000E6E000E15140F6EFE0E1614106E0D50C8
:1027D0000E100F101010D8A4F0EF13F0F2EF13F05A
:1027E000D5EF13F000EF14F0122A010E1326000E9D
:1027F000142215221622D8901632153214321332B2
:10280000000E13140D6E000E14140E6E000E15142F
:102810000F6EFF0E1614106E0D500E100F101010CC
:10282000D8A415EF14F017EF14F0F4EF13F01FEF26
:1028300014F01206D890133614361536163615BE17
:1028400024EF14F026EF14F02EEF14F0020E1260B5
:102850002CEF14F02EEF14F019EF14F012B033EF48
:1028600014F035EF14F036EF14F0159ED8901232B4
:1028700012C00DF00E6A0F6A106A0DC010F00F6AD8
:102880000E6A0D6A0D5013120E5014120F501512CD
:10289000105016121150D8B450EF14F052EF14F03B
:1028A0005AEF14F00CBE59EF14F057EF14F05AEF32
:1028B00014F0168E13C009F014C00AF015C00BF006
:1028C00016C00CF01200000E526EB40E516EC30E04
:1028D000926E030E936E010E946E000E956E000EB6
:1028E000966E060EC16E030E936E39EC1BF0F4EC7F
:1028F00018F028EC1BF032EC1BF0948E949C000E28
:10290000816E000E096E010EA0EC19F0340E046EFB
:10291000060E056EBBEC1AF0030E096E020EA0EC5B
:1029200019F0B00E046E060E056EBBEC1AF0030E25
:10293000096E030EA0EC19F0BB0E046E060E056EB8
:10294000BBEC1AF081B2A7EF14F0A9EF14F0A2EFDC
:1029500014F0010EB5EC18F0000E096E040EA0EC98
:1029600019F0A50E046E060E056EBBEC1AF0020EF1
:10297000166EE70E156E5DEC11F070EC03F0070EAD
:10298000026ED00E016E08EC1AF0010EB5EC18F0D4
:10299000EBEC08F0000E096E040EA0EC19F0230E0B
:1029A000046E060E056EBBEC1AF0000E166EB40E29
:1029B000156E73EC12F070EC03F0070E026ED00E81
:1029C000016E08EC1AF0010EB5EC18F0EBEC08F013
:1029D000000E096E040EA0EC19F0110E046E060E26
:1029E000056EBBEC1AF0020E4A6EE70E496E000E41
:1029F0004C6EB40E4B6E3EEC17F00B0E026EB80E22
:102A0000016E08EC1AF070EC03F0EBEC08F070ECDF
:102A100003F007EF15F000EF00F0000E956E000ECA
:102A2000026E020E016E000E046E000E036E36EC96
:102A300010F0000E026E030E016E000E046E000E0A
:102A4000036E36EC10F0000E026E040E016E000EE6
:102A5000046E000E036E36EC10F0000E026E050ED2
:102A6000016E000E046E000E036E36EC10F0000EC8
:102A7000836E97EF15F0010E5E24F66EF76A060E70
:102A8000F7220800F5CF83FF000E026E020E016EE2
:102A9000000E046E010E036E36EC10F0010E5F6E38
:102AA000B4EF15F0010E5D24F66EF76A060EF722FC
:102AB0000800F5CF83FF000E026E030E016E000EBC
:102AC000046E010E036E36EC10F0020E5F6EB4EF72
:102AD00015F0010E5C24F66EF76A060EF722080068
:102AE000F5CF83FF000E026E040E016E000E046E21
:102AF000010E036E36EC10F0030E5F6EB4EF15F0AE
:102B0000010E5B24F66EF76A060EF7220800F5CF79
:102B100083FF000E026E050E016E000E046E010EA4
:102B2000036E36EC10F0000E5F6EB4EF15F05F50E0
:102B3000076E086A0850000AD8B4A1EF15F093EFA9
:102B400015F00750000AD8B43BEF15F0010AD8B4CD
:102B500052EF15F0030AD8B469EF15F0010AD8B4A2
:102B600080EF15F093EF15F012000DC006F00EC0C7
:102B700007F0270E096E100E086E30EC19F00650A3
:102B8000300F0FC0D9FF10C0DAFFDF6E20EE01F06A
:102B90000F50D9261050DA22270E046E100E036E45
:102BA0000DC001F00EC002F0D6EC19F001C006F025
:102BB00002C007F0030E096EE80E086E30EC19F043
:102BC0000650300FDF6E20EE02F00F50D926105065
:102BD000DA22030E046EE80E036E0DC001F00EC083
:102BE00002F0D6EC19F001C006F002C007F0000EAA
:102BF000096E640E086E30EC19F00650300FDF6E6F
:102C000020EE03F00F50D9261050DA22000E046E89
:102C1000640E036E0DC001F00EC002F0D6EC19F088
:102C200001C006F002C007F0000E096E0A0E086E21
:102C300030EC19F00650300FDF6E20EE04F00F502C
:102C4000D9261050DA220DC001F00EC002F0000E9D
:102C5000046E0A0E036ED6EC19F00150300FDF6ED1
:102C600020EE05F00F50D9261050DA22000EDF6E4C
:102C70001200033404340A6E0A50D8A442EF16F04E
:102C800044EF16F04EEF16F0000E016E000E026ECD
:102C9000000E036E000E046EBBEF16F001C005F0CF
:102CA00002C006F003C007F004C008F0200E5EEF7B
:102CB00016F0D8900832073206320532E82E59EF66
:102CC00016F00550096E038EFF0E0116FF0E021658
:102CD000FF0E0316000E0416960E0A5E0ABE75EF6E
:102CE00016F073EF16F08BEF16F00A50800A970F6C
:102CF000D8B07DEF16F07FEF16F081EF16F044EFBD
:102D000016F0D89004320332023201320A3E81EFCB
:102D100016F0A3EF16F01F0E0A6491EF16F093EF72
:102D200016F09BEF16F044EF16F0D89001360236FD
:102D3000033604360A060A50D8A4A1EF16F0A3EF12
:102D400016F095EF16F00950D8B4A9EF16F0ABEFD6
:102D500016F0B3EF16F0041E031E021E016C000EE7
:102D600002220322042201C001F002C002F003C0CB
:102D700003F004C004F01200000E0114096E000EEE
:102D800002140A6E800E03140B6E7F0E04140C6E78
:102D900009500A100B100C10D8A4D1EF16F0D3EF85
:102DA00016F0DBEF16F0000E016E000E026E000E44
:102DB000036E000E046E000E0514096E000E06145C
:102DC0000A6E800E07140B6E7F0E08140C6E0950ED
:102DD0000A100B100C10D8A4F0EF16F0F2EF16F05A
:102DE000FAEF16F0000E056E000E066E000E076E6E
:102DF000000E086E04AEFFEF16F001EF17F00AEFB9
:102E000017F0016C021ED8B0022A031ED8B0032AA4
:102E1000800E045608AE0FEF17F011EF17F01AEFFF
:102E200017F0056C061ED8B0062A071ED8B0072A70
:102E3000800E0856000E011A000E021A000E031A28
:102E4000800E041A000E051A000E061A000E071A4C
:102E5000800E081A0550015C0650025807500358AE
:102E600008500458D8B037EF17F039EF17F03CEF9F
:102E700017F0D8903DEF17F0D880120049C009F044
:102E80004AC00AF0000E0ABEFF0E0B6E0C6E010E59
:102E900089EC13F009C030F00AC031F00BC032F0F9
:102EA0000CC033F04BC009F04CC00AF0000E0ABE53
:102EB000FF0E0B6E0C6E010E89EC13F009C01BF0B7
:102EC0000AC01CF00BC01DF00CC01EF04BC009F076
:102ED0004CC00AF0000E0ABEFF0E0B6E0C6E010E07
:102EE00089EC13F009C017F00AC018F00BC019F0F4
:102EF0000CC01AF02DEC0BF017C034F018C035F0F0
:102F000019C036F01AC037F042EC0DF030C04DF069
:102F100031C04EF032C04FF033C050F04DC017F00A
:102F20004EC018F04FC019F050C01AF0000E1B6EC2
:102F3000500E1C6EC30E1D6E470E1E6E2DEC0BF058
:102F400017C030F018C031F019C032F01AC033F099
:102F500069EC18F030C053F031C054F01200000E8C
:102F6000066E04BEB8EF17F0B6EF17F0BEEF17F01D
:102F7000036C041ED8B0042A010E066E02BEC5EF13
:102F800017F0C3EF17F0CBEF17F0016C021ED8B0AB
:102F9000022A010E061A000E086E000E076E03507C
:102FA0000410D8B4D6EF17F0D8EF17F000EF18F0F0
:102FB000010E056EE0EF17F0D89003360436052AAF
:102FC00004AEE5EF17F0E7EF17F0DCEF17F0D8905D
:102FD000073608360350015C04500258D8A0F3EFBE
:102FE00017F0F5EF17F0FAEF17F00350015E0450F9
:102FF000025A0780D89004320332052EE7EF17F00B
:103000000650D8B406EF18F008EF18F00CEF18F0DF
:10301000076C081ED8B0082A07C001F008C002F0EB
:103020001200000E0E6E0ABE1AEF18F018EF18F01C
:1030300020EF18F0096C0A1ED8B00A2A010E0E6E95
:103040000CBE27EF18F025EF18F02BEF18F00B6CE3
:103050000C1ED8B00C2A0B500C10D8B432EF18F05C
:1030600034EF18F058EF18F0010E0D6E3CEF18F029
:10307000D8900B360C360D2A0CAE41EF18F043EF0A
:1030800018F038EF18F00B50095C0C500A58D8A013
:103090004CEF18F04EEF18F052EF18F00B50095E9D
:1030A0000C500A5AD8900C320B320D2E43EF18F008
:1030B0000E50D8B45EEF18F060EF18F064EF18F01F
:1030C000096C0A1ED8B00A2A09C009F00AC00AF021
:1030D000120033BE6EEF18F070EF18F08CEF18F09E
:1030E00030C001F031C002F032C003F033C004F050
:1030F000000E056E000E066E000E076E3F0E086E87
:103100008BEC06F001C034F002C035F003C036F09D
:1031100004C037F0A6EF18F030C001F031C002F063
:1031200032C003F033C004F0000E056E000E066ED0
:10313000000E076EBF0E086E8BEC06F001C034F077
:1031400002C035F003C036F004C037F034C001F0DF
:1031500035C002F036C003F037C004F039EC16F089
:1031600001C030F002C031F01200086E83CF07F0CA
:10317000000E956E000E026E220E016E000E046EA1
:10318000000E036E36EC10F008C083FF000E026ED6
:10319000210E016E000E046E010E036E36EC10F06F
:1031A000000E026E210E016E000E046E000E036E04
:1031B00036EC10F007C083FF020E0818D8B4E3EF16
:1031C00018F0E5EF18F0EDEF18F00804D8A4EBEFD5
:1031D00018F0EDEF18F0F1EF18F0F6EC1AF0F3EF4D
:1031E00018F011EC1BF01200000E026E220E016EA0
:1031F000000E046E000E036E0FEC0FF0000E026E58
:10320000210E016E000E046E000E036E0FEC0FF027
:10321000000E956EF6EC1AF0F6EC1AF0F6EC1AF0D9
:10322000F6EC1AF0F6EC1AF0380EB5EC18F0F6ECF5
:103230001AF0F6EC1AF0380EB5EC18F0F6EC1AF0BD
:10324000380EB5EC18F0380EB5EC18F0060EB5ECEB
:1032500018F00C0EB5EC18F0010EB5EC18F01200D9
:10326000000E0B6E000E0A6E08500910D8B43BEF2A
:1032700019F03DEF19F065EF19F0010E0C6E45EFF6
:1032800019F0D890083609360C2A09AE4AEF19F021
:103290004CEF19F041EF19F0D8900A360B36085070
:1032A000065C09500758D8A058EF19F05AEF19F0EA
:1032B0005FEF19F00850065E0950075A0A80D8904F
:1032C000093208320C2E4CEF19F00AC006F00BC080
:1032D00007F012000F6E010ECB24016E026A000E81
:1032E00002220FC003F0046AE3EC1AF001C010F0F0
:1032F00002C011F010C006F011C007F0000E096EF8
:10330000190E086E30EC19F006C010F007C011F06D
:10331000FF0E1016030E111610C00DF011C00EF0A6
:10332000D8900E320D32D8900E320D320D50BE6E46
:1033300010C00DF0030E0D160D38F00BBD1212006B
:103340000B6E000E0A6E0B04D8A4A9EF19F0ABEFB8
:1033500019F0AEEF19F00950800F0A6E020E0B182B
:10336000D8A4B5EF19F0B7EF19F0BAEF19F009507A
:10337000C00F0A6E030E0B18D8A4C1EF19F0C3EFEB
:1033800019F0C6EF19F00950900F0A6E040E0B18D1
:10339000D8A4CDEF19F0CFEF19F0D2EF19F0095002
:1033A000D00F0A6E0A50B5EC18F01200035004104A
:1033B000D8B4DDEF19F0DFEF19F003EF1AF0010ECA
:1033C000056EE7EF19F0D89003360436052A04AEEF
:1033D000ECEF19F0EEEF19F0E3EF19F00350015C98
:1033E00004500258D8A0F7EF19F0F9EF19F0FDEFEB
:1033F00019F00350015E0450025AD890043203328F
:10340000052EEEEF19F001C001F002C002F012002B
:10341000000E046E000E036E2EEF1AF0000E056E05
:10342000280E056416EF1AF018EF1AF01AEF1AF0CA
:103430002CEF1AF0000E066E020E066422EF1AF050
:1034400024EF1AF026EF1AF029EF1AF0062A1CEFE3
:103450001AF0052A10EF1AF0034A042A0150035CFF
:1034600002500458D8A037EF1AF039EF1AF00EEFD7
:103470001AF01200106E0F50D8A441EF1AF043EF6B
:103480001AF045EF1AF010C05EF00F04D8A44BEF0D
:103490001AF04DEF1AF04FEF1AF010C05DF0020E67
:1034A0000F18D8A456EF1AF058EF1AF05AEF1AF086
:1034B00010C05CF0030E0F18D8A461EF1AF063EF90
:1034C0001AF065EF1AF010C05BF01200000E026EE9
:1034D000020E016E000E046E000E036E0FEC0FF074
:1034E000000E026E030E016E000E046E000E036EDF
:1034F0000FEC0FF0000E026E040E016E000E046E53
:10350000000E036E0FEC0FF0000E026E050E016E42
:10351000000E046E000E036E0FEC0FF0000E956EA1
:103520001200076E83CF08F0000E956E000E026E3B
:10353000220E016E000E046E010E036E36EC10F0CA
:1035400007C083FF000E026E210E016E000E046E96
:10355000010E036E36EC10F0000E026E210E016EAD
:10356000000E046E000E036E36EC10F008C083FFF0
:1035700011EC1BF01200000E086ECEEF1AF008508E
:103580000424066E000E0520076E06C0F6FF07C075
:10359000F7FF0800F55004EC1BF0082A085004243B
:1035A000066E000E0520076E06C0F6FF07C0F7FF87
:1035B0000800F5500009D8A4E0EF1AF0E2EF1AF085
:1035C000BFEF1AF0120001500302F3CF05F0F4CF61
:1035D00006F001500402F350062602500302F35095
:1035E000062605C001F006C002F01200000E026EB1
:1035F00011EC1BF0022A310E026401EF1BF003EF05
:103600001BF0F8EF1AF01200036E848203503EECB8
:103610001BF08484F6EC1AF08492F6EC1AF08482A3
:103620001200000E016E012A180E01641AEF1BF041
:103630001CEF1BF013EF1BF0120000EE53F0120E04
:10364000EE6AE806FDE1000EF86E000163EF14F08B
:1036500094929494030ECA12CA840C0EBD120C0EDE
:10366000BA121200010EC26E0B0EC16E010EC06EB8
:103670001200070E93160F0E95121200016E01C074
:0436800083FF1200B2
:020000040020DA
:08000000FFFFFFFFFFFFFFFF00
:020000040030CA
:0E000000FF027100FF8380FF0FC00FE00F4072
:00000001FF
